:020000040800F2
:1000000018050020F51A0008291B00082B1B000802
:1000100000000000000000000000000000000000E0
:100020000000000000000000000000002D1B000880
:1000300000000000000000002F1B0008051B000846
:10004000AF1300084B1600084F16000843190008AC
:10005000BF1A0008CB1A0008311B0008331B000828
:10006000351B0008371B0008391B00083B1B000824
:100070003D1B00083F1B000800000000411B00085A
:1000800000000000431B000800000000000000000A
:10009000451B000800000000471B0008491B000822
:1000A0004B1B00084D1B00084F1B0008511B00088C
:1000B000531B0008D511000800000000551B000864
:1000C000F0B583B0614C624D68780028614F37D03D
:1000D00061480068A968401A022801D200F032FF86
:1000E000002068707878012800D0A6E1B878000276
:1000F000F97808436946088138790002797908431C
:100100000190112801DB00F085FD002801D100F0ED
:1001100081FD6846008901994018112801DB00F033
:100120002CFE00F015FF387801F088F839784B483C
:1001300048404108C00700D492E0614090E0A880A8
:1001400001F062F8002801D100F0FCFE42490A6883
:10015000AB68D21A062A28D3387001222A7009689F
:10016000A960C0B23D4941404808C90700D5604078
:100170004108C00700D561404808C90700D5604064
:100180004108C00700D561404808C90700D5604054
:100190004208C00700D562405108D00700D5614031
:1001A0004808C907CBD56040C9E70968A960297824
:1001B0007854491C2970C9B2602905D100202870E3
:1001C0002648A88000F0BEFEAA88C0B2424050086F
:1001D000D20700D560404208C00700D562405008F1
:1001E000D20700D560404208C00700D562405008E1
:1001F000D20700D560404208C00700D562405008D1
:10020000D20700D560404208C00700D56240AA80EE
:10021000082995DBA888002892D178780F2801D08A
:10022000102803D1B8790930884289D10B48A880B9
:10023000002028703878012803D0FF2801D000F072
:1002400081FE0120687000F07DFE00BF01A000006B
:100250008807002018070020A8070020FFFF0000E3
:100260004808C90700D560404108C00700D5614073
:100270004808C90700D560404108C00700D5614063
:100280004808C90700D560404108C00700D5614053
:100290004D08C80700D56540012000F0CFFF0120C0
:1002A00068404108C00700D561404808C90700D52B
:1002B00060404108C00700D561404808C90700D523
:1002C00060404108C00700D561404808C90700D513
:1002D00060404108C00700D561404E08C80700D5FE
:1002E00066400198C01DC510E8B200F0A7FFEDB24E
:1002F0006E407008F10700D560404108C00700D586
:1003000061404808C90700D560404108C00700D5D2
:1003100061404808C90700D560404108C00700D5C2
:1003200061404808C90700D560404508C00700D5AE
:10033000654000266846008947077F0F68460089A8
:10034000C008694608810096AF4869460989405C43
:100350000121B940084206D0012000994907490F00
:100360008840304306007F1CFFB2082F05D10027CC
:1003700068460089401C694608810098401C00902E
:1003800040072BD1F0B200F059FFF6B27540680873
:10039000E90700D560404108C00700D56140480822
:1003A000C90700D560404108C00700D56140480832
:1003B000C90700D560404108C00700D56140480822
:1003C000C90700D560404508C00700D56540002634
:1003D000009801998842B7D100F0AEFD00980199CC
:1003E0008842B1D1F0B200F029FFF6B2754068083A
:1003F000E90700D560400104490CC00700D5614001
:100400004808C90700D560404108C00700D56140D1
:100410004808C90700D560404108C00700D56140C1
:100420004808C90700D560404508C00701D400F05E
:1004300083FD6C40250000F07FFD022800D014E110
:10044000B8780002F97808436946088138790002D3
:10045000797908430090112800DBDBE3002800D104
:10046000D8E36846008900994018112801DB00F0A4
:1004700084FC00F082FD387800F0E0FE39788B488B
:1004800048404108C00700D561404808C90700D569
:1004900060404108C00700D561404808C90700D541
:1004A00060404108C00700D561404808C90700D531
:1004B00060404108C00700D561404D08C80700D51D
:1004C0006540022000F0BAFE022068404108C007E3
:1004D00000D561404808C90700D560404108C00701
:1004E00000D561404808C90700D560404108C007F1
:1004F00000D561404808C90700D560404108C007E1
:1005000000D561404E08C80700D566400098C01D60
:10051000C510E8B200F092FEEDB26E407008F1072F
:1005200000D560404108C00700D561404808C907B0
:1005300000D560404108C00700D561404808C907A0
:1005400000D560404108C00700D561404808C90790
:1005500000D560404508C00700D5654000266846C4
:10056000008947077F0F68460089C00869460881EF
:1005700001964F4869460989405C0121B94008420B
:1005800006D0012001994907490F884030430600F1
:100590007F1CFFB2082F05D1002768460089401C48
:1005A000694608810198401C019040072ED1F0B2A5
:1005B00000F044FEF6B275406808E90700D56040D7
:1005C0004108C00700D561404808C90700D5604010
:1005D0004108C00700D561404808C90700D5604000
:1005E0004108C00700D561404808C90700D56040F0
:1005F0004508C00700D5654000260198009988424B
:10060000B7D100F099FC00BFA00700200198009925
:100610008842AED1F0B200F011FEF6B27540680823
:10062000E90700D560400104490CC00700D56140CE
:100630004808C90700D560404108C00700D561409F
:100640004808C90700D560404108C00700D561408F
:100650004808C90700D560404508C00701D400F02C
:100660006BFC6C40250000F067FC032800D0E8E03C
:10067000B8780002F9780843019038790002797956
:1006800008430090092800DBC4E2002800D1C1E241
:10069000019800994018052800DB6EE300F088FC03
:1006A000387800F0CBFD3978004803E0FFFF000008
:1006B0009E07002048404108C00700D56140480817
:1006C000C90700D560404108C00700D5614048080F
:1006D000C90700D560404108C00700D561404808FF
:1006E000C90700D560404108C00700D561404D08EA
:1006F000C80700D56540032000F0A0FD0320684036
:100700004108C00700D561404808C90700D56040CE
:100710004108C00700D561404808C90700D56040BE
:100720004108C00700D561404808C90700D56040AE
:100730004108C00700D561404E08C80700D5664093
:1007400000984500E8B200F079FDEDB26E40700807
:10075000F10700D560404108C00700D56140480856
:10076000C90700D560404108C00700D5614048086E
:10077000C90700D560404108C00700D5614048085E
:10078000C90700D560404508C00700D565400098FE
:10079000012800DAD0E39E48019949004618009FDD
:1007A0003088000A00F04AFD3088010A4D4069088F
:1007B000EA0700D561404A08C90700D562405108E0
:1007C000D20700D561404A08C90700D562405108E8
:1007D000D20700D561404A08C90700D562405108D8
:1007E000D20700D561404D08C90700D56540C0B2A9
:1007F00000F024FD3088C0B245406808E90700D504
:1008000060404108C00700D561404808C90700D5CD
:1008100060404108C00700D561404808C90700D5BD
:1008200060404108C00700D561404808C90700D5AD
:1008300060404508C00700D56540B61C7F1EAFD19B
:100840007AE3042800D0E5E0B8780002F97808439C
:10085000009038790002797908430190092800DB7B
:10086000D8E1002800D1D5E1009801994018082866
:1008700000DB82E200F0A7FB387800F0DFFC39787B
:10088000B64848404108C00700D561404808C9073C
:1008900000D560404108C00700D561404808C9073D
:1008A00000D560404108C00700D561404808C9072D
:1008B00000D560404108C00700D561404D08C80719
:1008C00000D56540042000F0B9FC042068404108D0
:1008D000C00700D561404808C90700D560404108FD
:1008E000C00700D561404808C90700D560404108ED
:1008F000C00700D561404808C90700D560404108DD
:10090000C00700D561404E08C80700D56640019871
:100910004500E8B200F092FCEDB26E407008F107BD
:1009200000D560404108C00700D561404808C907AC
:1009300000D560404108C00700D561404808C9079C
:1009400000D560404108C00700D561404808C9078C
:1009500000D560404508C00700D5654001980128D2
:1009600000DAE9E27E48009949004618019F308884
:10097000000A00F063FC3088010A4D406908EA076C
:1009800000D561404A08C90700D562405108D20726
:1009900000D561404A08C90700D562405108D20716
:1009A00000D561404A08C90700D562405108D20706
:1009B00000D561404D08C90700D56540C0B200F0C0
:1009C0003DFC3088C0B245406808E90700D560406A
:1009D0004108C00700D561404808C90700D56040FC
:1009E0004108C00700D561404808C90700D56040EC
:1009F0004108C00700D561404808C90700D56040DC
:100A00004508C00700D56540B61C7F1EAFD193E2F4
:100A10009407002005283CD1B8780002F9780843F3
:100A2000102800DBA9E1397909027A7911430FD046
:100A3000FF221202914200D0ECE0C108494A51184D
:100A40000A7801234007400F834013430B7009E0ED
:100A5000C108444A51180A7801234007400F8340D7
:100A60009A430A70387800F0E9FB787800F0E6FBEA
:100A7000B87800F0E3FBF87800F0E0FB387900F09C
:100A8000DDFB787900F0DAFBB87900F0D7FBF87974
:100A9000A8E0062826D1B8780002F978084304288F
:100AA00000DB6AE1397909027A7911432E4A400064
:100AB0001152387800F0C2FB787800F0BFFBB878AC
:100AC00000F0BCFBF87800F0B9FB387900F0B6FB19
:100AD000787900F0B3FBB87900F0B0FBF87900F05A
:100AE000ADFBB0E10F2800D081E0B8780002F978C2
:100AF0000843397909027A7911430091092900DB09
:100B000088E0002900D185E0C91DC910BA79914259
:100B100000D07FE000994118112900DB2DE1410749
:100B2000490F4003000C0022009B012B2CDB01230A
:100B30008B406D46AB720B4B1B1801931B78D51085
:100B40007D19ED795607760FF540ED076D46AD7AC4
:100B50000CD51D43019B1D700BE000BFFFFF000083
:100B600078070020A007002094070020AB43019DD8
:100B70002B70491CC9B2082902D10021401C80B247
:100B8000521C009B9A42D2DBB04D0626387800F00A
:100B900055FB387845406808E90700D560404108B2
:100BA000C00700D561404808C90700D5604041082A
:100BB000C00700D561404808C90700D5604041081A
:100BC000C00700D561404808C90700D56040450806
:100BD000C00700D565407F1C761ED7D1E8B200F073
:100BE0002DFB280A00F02AFB00F004FAAAE11028E5
:100BF00000D0B6E0B8780002F978084339790902E4
:100C00007A791143092905DA002903D04A00BB7912
:100C10009A4252D0387800F011FB39788B4848401E
:100C20004108C00700D561404808C90700D56040A9
:100C30004108C00700D561404808C90700D5604099
:100C40004108C00700D561404808C90700D5604089
:100C50004108C00700D561404E08C80700D566406E
:100C600080257878284300F0E9FA787805436E40CB
:100C70007008F10700D560404108C00700D5614009
:100C80004808C90700D560404108C00700D5614049
:100C90004808C90700D560404108C00700D5614039
:100CA0004808C90700D560404508C00700D5654021
:100CB000032000F0C3FA03201CE14218052A5CDA85
:100CC00001291DDBA04A40001018FA1DCB0706D5EC
:100CD00013781B0255782B430380921C801C490813
:100CE0000ED013781B0255782B43038093781B0298
:100CF000D5782B434380491E121D001D0029F0D1D9
:100D0000524D0626387800F099FA38784540680840
:100D1000E90700D560404108C00700D56140480898
:100D2000C90700D560404108C00700D561404808A8
:100D3000C90700D560404108C00700D56140480898
:100D4000C90700D560404508C00700D565407F1C35
:100D5000761ED7D1E8B200F071FA280A00F06EFAD8
:100D600071E0162874D1B8780102F8780143387917
:100D700000027A791043042952DB387800F05EFAD9
:100D80003978324848404108C00700D561404808DA
:100D9000C90700D560404108C00700D56140480838
:100DA000C90700D560404108C00700D56140480828
:100DB000C90700D560404108C00700D561404E0812
:100DC000C80700D5664080257878284300F036FAB9
:100DD000787805436E407008F10700D560404108FF
:100DE000C00700D561404808C90700D560404108E8
:100DF000C00700D561404808C90700D560404108D8
:100E0000C00700D561404808C90700D560404508C3
:100E1000C00700D56540022000F010FA022069E00A
:100E2000494A490051180A880240BB791B02FC79E3
:100E30002343834313430B800A24387800F0FEF9E0
:100E40007F1C641EF9D100F0EAF87BE0FFFF000090
:100E5000387800F0F3F939783C4848404108C00739
:100E600000D561404808C90700D560404108C00767
:100E700000D561404808C90700D560404108C00757
:100E800000D561404808C90700D560404108C00747
:100E900000D561404E08C80700D5664080257878A7
:100EA000284300F0CBF9787805436E407008F107CD
:100EB00000D560404108C00700D561404808C90717
:100EC00000D560404108C00700D561404808C90707
:100ED00000D560404108C00700D561404808C907F7
:100EE00000D560404508C00700D56540012000F0EE
:100EF000A5F9012068404108C00700D561404808B5
:100F0000C90700D560404108C00700D561404808C6
:100F1000C90700D560404108C00700D561404808B6
:100F2000C90700D560404108C00700D561404D08A1
:100F3000C80701D56C402500E8B200F07FF9280A07
:100F400000F07CF903B0F0BD94070020FFFF000023
:100F500010B4384801780279F023134004220A4083
:100F600008240C401443CA07D20F22430224214014
:100F700011431943017110BC704730B42D480178FA
:100F80008378E0221A4008230B402B4C247824015C
:100F900010252C401C43CB07DB0F234302240C40BD
:100FA0001C430423194021431143817030BC704716
:100FB0002248234909780180224909784180224941
:100FC00009788180704721481D49097801801D49B1
:100FD000097841801C49097881801D490988C180B0
:100FE0001C49098801811C49098841811B490988DC
:100FF0008181704710B40F4801790278F0231340C3
:1010000004220A4008240C401443CA07D20F22438A
:101010000224214011431943017010BC7047074856
:101020000188074A11704188064A11708088064974
:10103000087070479C0700200000002094070020E3
:10104000010000200200002003000020780700209B
:101050000800002004000020060000200A000020F4
:10106000F1B58EB07F4C206A7F4901402162022693
:10107000206830432060206830400090009801963E
:101080000296032003900025049505950420069000
:1010900001A9694800F030F9200D01900296032063
:1010A00003900495012705970420069001A9624842
:1010B00000F022F9E00C01900296032003900495C1
:1010C00005970420069001A95B4800F015F96068B7
:1010D0003843606060683840009000987348C16B86
:1010E000734A0A40A021C9031143C1630168714AD0
:1010F0000A4002600168C02292010A43026001684E
:1011000020220A4302600168402291430160016885
:1011100080220A4302600168674A0A40026001684F
:10112000514A0A4002604168090C0904820D0A43D1
:101130004260816861498160C1686149C16001683C
:10114000394301607004E1680143E160E1680840EF
:10115000009000980E980790089509950A950C2024
:101160000B900C95274C07A9200000F021F9A068EE
:10117000210C0143A160A06852490140A160206890
:101180005149014021602068504901402160A06818
:10119000A10C0143A160A0684D490140A16040201D
:1011A000A1680143A1602062216808432060206893
:1011B0000743276047480580458085804648016889
:1011C000464A0A40026030074549086045490860C0
:1011D0000FB0F0BD402244480168114000D1704773
:1011E00010B43C494B888C88A34201D1426007E08F
:1011F0003F4A8B88D25CC2608888401CC0B288801D
:1012000010BC70470048004030B432490A88802042
:101210004000364C2468A4B2041BA24201D1002035
:1012200008E00624334D2C60254CA35C521CD2B23E
:101230000A80184330BC70470004005010B42549A0
:101240004A888C88A24205D1274B1C68240601D508
:10125000D86004E0264B9854521CD0B2488010BC91
:10126000704700002C100240FFF3FFFFF1B4002094
:1012700080211D4A009B1B5C1C0013D0154C658807
:10128000A788BD4204D116680E4001D0D36004E0A7
:10129000174E73556D1CEBB26380401C80B24B003F
:1012A0009842E7D101B0F0BC704700006C000240EA
:1012B000FFFF0FFFEFBFFFFFFFFCFFFF24480040D1
:1012C00018050020FF7FFFFFFFFF1FFCFFFFE0FF6F
:1012D000FFDFFFFFA20700201CE400E0FF00FFFF8C
:1012E00080E200E000E100E01C48004070000240A5
:1012F0001806002020480040E0B481B0020000231E
:101300000868002843D0086801259D4005403AD070
:101310002800684346003718FE43009617683E4091
:101320004F684743374317604E68012E01D0022EA5
:1013300006D19768009E3E408F68474337439760C9
:10134000D768009E3E400F6947433743D7604E68D9
:10135000022E18D14E69FF2D09D868436843156ADB
:1013600007013F1ABD437043284310620BE02D0A6A
:101370002800684368436843556A07013F1ABD4324
:101380007043284350625B1C0868D840BBD1486852
:10139000012801D0022806D1086853688343C96830
:1013A000484318435060012001B0E0BC7047FEE79D
:1013B00070B504000E0000252068C0072CD42068FA
:1013C0001649014070680843F168014330690843D9
:1013D0002060606812490140B06808436060A068FE
:1013E0001049014070690843A060C020000100F06E
:1013F0001BF8020010D03668002E0DD00125030E18
:10140000020270080021801859413200002300F0C8
:101410008FF80003000BE060280070BDF3E9FFEFD8
:10142000FFCFFFFFFFFCFFFF10B5010000203A4C8B
:10143000E26C1140220D914207D0520091422BD014
:10144000C022120191422CD031E0E0680C21014011
:101450001AD0042923D0082914D00C2914D1E0680B
:10146000C00301D52D4800E02D48E168E2682D4B0E
:101470008902090F595C48431102890F491C00F089
:101480008CF810BD254810BD606801210004400F94
:10149000401C8140C80310BD216849073BD5204846
:1014A00010BD216D890536D58020000210BDE06891
:1014B0000C2101401CD0042918D0082914D00C2973
:1014C00016D1E068C00301D5144800E01448E26872
:1014D000E168144B9202120F9A5C50430902890F83
:1014E000491C00F05AF80AE00C4808E00C4806E0F5
:1014F000606801210004400F401C8140C803E1687E
:10150000E268094B0906090F595CC84007495205B2
:10151000520F895CC84010BD0010024000127A00D2
:101520000024F400D4190008C4190008201B000886
:10153000124224D0994228D970B500251B4202D00E
:101540000C00002109E0002401264918644194425E
:1015500000D3A41A7641F8D33100012601E0764188
:1015600009D2001864416D41A41A9D41F7D2A41814
:101570005D41B619F5D3300022002B0070BD1B422F
:10158000D8D108B500F060F808BD01D19042D3D29F
:1015900002000B000021002070470022030A8B424A
:1015A0000BD203098B4219D243088B422ED2411A27
:1015B00000D20146524110467047FF2209023FD037
:1015C00012068B4205D3121209028B4201D312126A
:1015D000090203098B4219D300E0090AC3098B42AF
:1015E00001D3CB01C01A524183098B4201D38B0135
:1015F000C01A524143098B4201D34B01C01A5241D8
:1016000003098B4201D30B01C01A5241C3088B421C
:1016100001D3CB00C01A524183088B4201D38B0007
:10162000C01A524143088B4201D34B00C01A5241A9
:10163000884200D3401A5241CFD20146104670472B
:1016400008B500F003F808BD7047FEE77047FEE7F5
:10165000F0B587B000F0A4F800F0C4F84548006881
:10166000FA218900FFF799FF401E00254249802298
:10167000520490420BD2414A506008680002000AAE
:10168000C0231B0603430B609560072010600868A9
:101690000002000A08609620C001FFF7E1FC00BFCD
:1016A0003CA0FFF7E3FD69463548006800F004F907
:1016B0006846011DFA20400000F0FEF81020314974
:1016C0000A6802430A600968084002900298694665
:1016D0008D8104952C4805902C4E03A9300000F014
:1016E000F5F83068012101433160294C7562FEF73D
:1016F000E7FC706A20812089E288904200D2E08075
:10170000A188814200D2A080E1680A0C891A0818D9
:10171000E060000C60811A480768684600F006F92E
:101720003F1A6846001D00F001F98742DED3694682
:101730001348006800F0C0F82078401C2070C0B248
:101740000228D3D125706078401C6070C0B23C285C
:10175000CCD16570A078401CA070C0B23C28C5D127
:10176000A570E078401CE070C0B21828BED1E570CA
:10177000BCE700001000002020ED00E010E000E0D9
:10178000A807002038100240FDFF000000100040B4
:10179000000000200A0D0A0D476F210A0D0A0D00F6
:1017A00081B0012037490A6802430A600A68104084
:1017B00000900098802040054A6802434A604968CA
:1017C000084000900098304801680902090A016049
:1017D00041682E4A0A40426041680902090A416094
:1017E00001B0704710B5012029490A6802430A6018
:1017F0000968014000D1FEE726490A68264B1340DC
:10180000C2021A430A6025490A6810430860086842
:101810004007FCD54868224A0240880C10434860C3
:10182000C868204A02408820C0031043C860086886
:101830008022520402430A6008688001FCD5C8680F
:10184000F0229043C860C868174A0240CA60C8685E
:10185000164A0240CA60C86803220243CA600C20CC
:10186000CA6802400C2AFBD1114C200000F06AF833
:101870001048016804220A430260200000F06FF85B
:1018800010BD0000341002401CED00E0FFFF00FF1F
:101890000020024000700040FFE7FFFF0010024000
:1018A000FFE0FFFFFFFF02FFFFF8FFFFFFC7FFFFA3
:1018B0000048E80110E000E084460870000A487023
:1018C000000A8870000AC8706046704710B4026849
:1018D0008023DB05984205D0114CA04202D0114C68
:1018E000A04209D17024A24314004A6822439842BE
:1018F00005D00B4B984202D00A4B984203D10A4BB9
:101900001340CA681A4302608A68C2620988816209
:10191000416901220A434261012010BC7047000066
:101920000008014000140140FFFCFFFFC3788278EB
:10193000417800781B021A4309021204084310433D
:101940007047FEE710B5074CFA218900FFF725FE26
:10195000401E60600020A0600520206010BD02498C
:101960000860704710E000E0100000200F48016898
:10197000820D0A430260C1680D4A0A40C2600168D4
:101980000C4A0A400260816801229143816001682B
:10199000094A0A400260C168084A0A40C260002140
:1019A0000161802000050649086070470010024070
:1019B0000C40FF88F6FFF6FEFFFFFBFFFFFF02FF74
:1019C00008ED00E000000000000000000102030438
:1019D00006070809030406080C1018203000000050
:1019E00070B40121002213E00468001D0C4202D0F3
:1019F0004D466D1E64192260241D1B1F042BFAD254
:101A000025009E0701D52280AD1C0B4000D02A7016
:101A10000368001D002BE7D170BC704730B4012172
:101A20000268001D002A0FD00368C31844680830FC
:101A30000C4202D04D466D1E64191D6825601B1DA9
:101A4000241D121FECD0F8E730BC704710B50749D1
:101A500079441831064C7C44163404E0081D0A68A9
:101A6000891888470100A142F8D110BD0800000084
:101A7000280000006DFFFFFF940200001805002001
:101A80000000000099FFFFFF140000005400000058
:101A9000000000200000000000F00BF8002801D03A
:101AA000FFF7D4FF002000BF00BFFFF7D1FD00F01B
:101AB00002F80120704780B500F002F801BDFEE792
:101AC0000746384600F002F8FBE7FEE780B500BFA6
:101AD00000BF024A11001820ABBEFBE7260002003F
:101AE000000000000000FFFF0000000000000000F8
:101AF00080841E0001488047014800476D19000896
:101B0000151B000802480168491C0160704700006D
:101B1000A807002000BF00BF00BF00BFFFF7BCFF49
:101B200000000000010203047047FEE770477047A1
:101B3000FEE7FEE7FEE7FEE7FEE7FEE7FEE7FEE77D
:101B4000FEE7FEE7FEE7FEE7FEE7FEE7FEE7FEE76D
:061B5000FEE7FEE7FEE7E0
:0400000508001B15BF
:00000001FF
