:020000040800F2
:1000000018050020E1170008151800081718000847
:1000100000000000000000000000000000000000E0
:100020000000000000000000000000001918000897
:1000300000000000000000001B180008F117000875
:100040009B0F0008371200083B1200082F1500080C
:10005000AB170008B71700081D1800081F18000884
:100060002118000823180008251800082718000880
:10007000291800082B180008000000002D1800089F
:10008000000000002F180008000000000000000021
:100090003118000800000000331800083518000867
:1000A00037180008391800083B1800083D180008E8
:1000B0003F180008C10D00080000000041180008AA
:1000C000F0B583B0BF4F78780028BF4CBF4DC04E0D
:1000D00000D19EE0BF480068B968401A022801D2EA
:1000E00000F0A4FC002078707078012800D0E5E0D2
:1000F000B0780002F1780843694608803079000240
:10010000717908430190112800DB78E3002800D1C1
:1001100075E36846008801994018112801DB00F05A
:1001200016FC00F00BFD307800F07EFEFF203278E8
:10013000FF2151406A5C1202615C48401043060096
:10014000012000F071FE01207040C0B2295C09025C
:10015000360A205C46400E430198C01DC710F8B215
:1001600000F062FE7740FFB2E85D0002360AE15D12
:100170004E4006430027684600884007400F694606
:10018000887068460088C0080880029792486946CF
:100190000988415C01206A4692789040014206D06D
:1001A000012002994907490F884038430700501C35
:1001B0006946887068468078082805D100208870D4
:1001C00068460088401C08800298401C0290400746
:1001D0005DD1F8B200F028FE7740FFB2E85D000282
:1001E000360AE15D4E400643002702980199884295
:1001F000CCD15DE0317001223A700068B860FF2018
:10020000FF224A40D2B2A95C0902A25C50400843D6
:10021000B88000F0EFFD010001D100F007FC6D484F
:100220000268BB68D21A062AE4D20068B86038783F
:100230003154401C3870C0B2602804D1002038709E
:100240006648B880F2E3BA885140C9B26B5C1B02C1
:10025000120A615C4A401A43BA800828D9DB002A96
:10026000D7D171780F2901D0102903D1B179093183
:100270008142CED15948B8800020387030780128AA
:1002800002D0FF2800D0D1E301207870CEE302989D
:100290000199884200D079E7F8B200F0C5FD7740B7
:1002A000FFB2E85D00023604360EE15D4E400643C3
:1002B000F0B200F0B9FD3004000EB5E3022800D022
:1002C000A4E0B0780002F1780843694608803079EC
:1002D0000002717908430290112800DB8FE20028A8
:1002E00000D18CE26846008802994018112800DB92
:1002F0002DE300F038FC307800F096FDFF203278D6
:10030000FF2151406A5C1202615C484010430600C4
:10031000022000F089FD02207040C0B2295C090271
:10032000360A205C46400E430298C01DC710F8B242
:1003300000F07AFD7740FFB2E85D0002360AE15D29
:100340004E4006430027684600884007400F694634
:10035000887068460088C00808800197CD486946C3
:100360000988415C01206A4692789040014206D09B
:10037000012001994907490F884038430700501C64
:100380006946887068468078082805D10020887002
:1003900068460088401C08800198401C0190400776
:1003A0001ED1F8B200F040FD7740FFB2E85D0002D8
:1003B000360AE15D4E4006430027019802998842C3
:1003C000CCD11DE0880700203C0A00085815000821
:1003D00018070020A8070020A0070020FFFF00004A
:1003E000019802998842B9D1F8B200F01DFD77401A
:1003F000FFB2E85D00023604360EE15D4E40064372
:10040000F0B200F011FD3004000E0DE303286BD1B3
:10041000B0780702F0780743307900027179084319
:100420000190092800DBEAE1002800D1E7E1381853
:10043000052800DB8BE200F0B1FB307800F0F4FC23
:10044000FF203278FF2151406A5C1202615C484013
:1004500010430600032000F0E7FC03207040C0B208
:10046000295C0902360A205C46400E430198400090
:10047000694688706846807800F0D6FC68468078C7
:100480007040C0B2295C0902360A205C46400E4327
:100490000198012823DBCD48790047180198029084
:1004A0003888000A00F0C0FC3888010A7140C9B2DF
:1004B0006A5C1202360A615C4E401643C0B200F01C
:1004C000B3FC38887040C0B2295C0902360A205C4F
:1004D00046400E43BF1C0298401E0290E0D1F0B28D
:1004E00000F0A2FC300A9FE204286BD1B07807022A
:1004F000F0780743307900027179084301900928A8
:1005000000DB7CE1002800D179E13818082800DB05
:100510001DE200F04EFB307800F086FCFF203278C0
:10052000FF2151406A5C1202615C484010430600A2
:10053000042000F079FC04207040C0B2295C09025C
:10054000360A205C46400E43019840006946887098
:100550006846807800F068FC684680787040C0B2D9
:10056000295C0902360A205C46400E4301980128A6
:1005700023DB974879004718019802903888000AD1
:1005800000F052FC3888010A7140C9B26A5C12025C
:10059000360A615C4E401643C0B200F045FC388814
:1005A0007040C0B2295C0902360A205C46400E4306
:1005B000BF1C0298401E0290E0D1F0B200F034FC63
:1005C000300A31E205283CD1B0780002F1780843C6
:1005D000102800DBBBE131790902727911430FD099
:1005E000FF221202914200D009E1C108794A511854
:1005F0000A7801234007400F834013430B7009E042
:10060000C108744A51180A7801234007400F8340FB
:100610009A430A70307800F007FC707800F004FC10
:10062000B07800F001FCF07800F0FEFB307900F0CB
:10063000FBFB707900F0F8FBB07900F0F5FBF07986
:10064000BEE0062828D1B0780002F17808430428DB
:1006500000DB7CE131790902727911435B4A400089
:100660001152307800F0E0FB707800F0DDFBB078DC
:1006700000F0DAFBF07800F0D7FB307900F0D4FB23
:10068000707900F0D1FBB07900F0CEFBF07900F08A
:10069000CBFB95E19E0700200F2800D09CE0B078AE
:1006A0000002F1780843317909027279114309296E
:1006B00000DBA4E0002900D1A1E0CA1DD210B3796B
:1006C0009A4200D09BE04218112A00DB3FE142072A
:1006D000520F4003000C0023012922DB0124944027
:1006E0006D46AC703B4C241801942478DD107519CC
:1006F000ED795F077F0FFD40ED076D46AD7803D5BF
:100700002543019C257002E0AC43019D2C70521CD6
:10071000D2B2082A02D10022401C80B25B1C8B425C
:10072000DCDBC34CC34D307800F07EFBFF20327819
:10073000FF2151406A5C1202615C4840104307008F
:10074000707800F071FB70787840C0B2295C0902C3
:100750003F0A205C47400F43B07800F065FBB0785B
:100760007840C0B2295C09023F0A205C47400F4331
:10077000F07800F059FBF0787840C0B2295C0902AB
:100780003F0A205C47400F43307900F04DFB307941
:100790007840C0B2295C09023F0A205C47400F4301
:1007A000707900F041FB70797840C0B2295C090291
:1007B0003D0A205C45400D43E8B200F035FB280AB5
:1007C00000F032FB00F00CFA30E100BF940700208B
:1007D00078070020A0070020102800D0ABE0B078F8
:1007E0000002F1780843317909027279114309292D
:1007F00005DA002903D04A00B3799A4225D030782F
:1008000000F012FBFF203278FF2151406A5C120297
:10081000615C4840104369460880802770783843FF
:1008200000F002FB6846008871780F434740FFB232
:10083000E85D0002694609880E0AE15D4E40064304
:10084000032000F0F1FA0320E2E04218052A00DB61
:100850007DE001291DDB784A40001018F21DCB070E
:1008600006D513781B02547823430380921C801C06
:1008700049080ED013781B025478234303809378E1
:100880001B02D47823434380491E121D001D0029FA
:10089000F0D100BF69A4307800F0C6FAFF203278AA
:1008A000FF2151406A5C1202615C4840104307001E
:1008B000707800F0B9FA70787840C0B2295C09020B
:1008C0003F0A205C47400F43B07800F0ADFAB078A3
:1008D0007840C0B2295C09023F0A205C47400F43C0
:1008E000F07800F0A1FAF0787840C0B2295C0902F3
:1008F0003F0A205C47400F43307900F095FA307989
:100900007840C0B2295C09023F0A205C47400F438F
:10091000707900F089FA70797840C0B2295C0902D8
:100920003D0A205C45400D43E8B200F07DFA280AFC
:1009300000F07AFA44E0162845D1B0780102F07848
:1009400001433079000272791043042925DB3078A5
:1009500000F06AFAFF203278FF2151406A5C1202EF
:10096000615C4840104369460880802770783843AE
:1009700000F05AFA6846008871780F434740FFB28A
:10098000E85D0002694609880E0AE15D4E400643B3
:10099000022000F049FA02203AE0274A49005118A3
:1009A0000A880240B3791B02F4792343834313433B
:1009B0000B800A24307800F037FA761C641EF9D1D7
:1009C00000F023F932E0307800F02EFAFF20327880
:1009D000FF2151406A5C1202615C48401043694645
:1009E000088080277078384300F01EFA6846008837
:1009F00071780F434740FFB2E85D000269460988FD
:100A00000E0AE15D4E400643012000F00DFA012080
:100A10007040C0B2295C0902350A205C45400D4394
:100A2000E8B200F001FA280A00F0FEF903B0F0BDC8
:100A30003C0A0008581500089407002000C18140B6
:100A400001C0804101C0804100C1814001C080419E
:100A500000C1814000C1814001C0804101C080418E
:100A600000C1814000C1814001C0804100C181407E
:100A700001C0804101C0804100C1814001C080416E
:100A800000C1814000C1814001C0804100C181405E
:100A900001C0804101C0804100C1814000C181404E
:100AA00001C0804101C0804100C1814001C080413E
:100AB00000C1814000C1814001C0804101C080412E
:100AC00000C1814000C1814001C0804100C181401E
:100AD00001C0804101C0804100C1814000C181400E
:100AE00001C0804101C0804100C1814001C08041FE
:100AF00000C1814000C1814001C0804100C18140EE
:100B000001C0804101C0804100C1814001C08041DD
:100B100000C1814000C1814001C0804101C08041CD
:100B200000C1814000C1814001C0804100C18140BD
:100B300001C0804101C0804100C1814010B43848EB
:100B400001780279F023134004220A4008240C4063
:100B50001443CA07D20F22430224214011431943F0
:100B6000017110BC704730B42D4801788378E022C1
:100B70001A4008230B402B4C2478240110252C40CC
:100B80001C43CB07DB0F234302240C401C430423EC
:100B9000194021431143817030BC704722482349DA
:100BA00009780180224909784180224909788180A9
:100BB000704721481D49097801801D490978418005
:100BC0001C49097881801D490988C1801C49098810
:100BD00001811C49098841811B490988818170472D
:100BE00010B40F4801790278F023134004220A4020
:100BF00008240C401443CA07D20F22430224214088
:100C000011431943017010BC704707480188074A17
:100C100011704188064A1170808806490870704733
:100C20009C07002000000020940700200100002005
:100C300002000020030000207807002008000020A8
:100C400004000020060000200A000020F1B58EB04C
:100C50007F4C206A7F490140216202262068304390
:100C60002060206830400090009801960296032092
:100C700003900025049505950420069001A9694874
:100C800000F030F9200D01900296032003900495A6
:100C9000012705970420069001A9624800F022F977
:100CA000E00C019002960320039004950597042020
:100CB000069001A95B4800F015F960683843606050
:100CC00060683840009000987348C16B734A0A40CE
:100CD000A021C9031143C1630168714A0A4002603F
:100CE0000168C02292010A430260016820220A437F
:100CF00002600168402291430160016880220A433A
:100D000002600168674A0A4002600168514A0A406D
:100D100002604168090C0904820D0A43426081683F
:100D200061498160C1686149C160016839430160FE
:100D30007004E1680143E160E168084000900098B8
:100D40000E980790089509950A950C200B900C9524
:100D5000274C07A9200000F021F9A068210C0143CD
:100D6000A160A06852490140A1602068514901403A
:100D700021602068504901402160A068A10C014316
:100D8000A160A0684D490140A1604020A1680143D5
:100D9000A160206221680843206020680743276023
:100DA000474805804580858046480168464A0A4094
:100DB0000260300745490860454908600FB0F0BD42
:100DC000402244480168114000D1704710B43C49AA
:100DD0004B888C88A34201D1426007E03F4A8B8850
:100DE000D25CC2608888401CC0B2888010BC70474A
:100DF0000048004030B432490A8880204000364C18
:100E00002468A4B2041BA24201D1002008E00624F9
:100E1000334D2C60254CA35C521CD2B20A8018437F
:100E200030BC70470004005010B425494A888C88B3
:100E3000A24205D1274B1C68240601D5D86004E0E6
:100E4000264B9854521CD0B2488010BC704700000A
:100E50002C100240FFF3FFFFF1B4002080211D4A57
:100E6000009B1B5C1C0013D0154C6588A788BD42F5
:100E700004D116680E4001D0D36004E0174E7355BC
:100E80006D1CEBB26380401C80B24B009842E7D1EE
:100E900001B0F0BC704700006C000240FFFF0FFF84
:100EA000EFBFFFFFFFFCFFFF2448004018050020B4
:100EB000FF7FFFFFFFFF1FFCFFFFE0FFFFDFFFFFE4
:100EC000A20700201CE400E0FF00FFFF80E200E03A
:100ED00000E100E01C4800407000024018060020BD
:100EE00020480040E0B481B00200002308680028D8
:100EF00043D0086801259D4005403AD0280068434A
:100F000046003718FE43009617683E404F68474337
:100F1000374317604E68012E01D0022E06D1976824
:100F2000009E3E408F68474337439760D768009ED6
:100F30003E400F6947433743D7604E68022E18D1B1
:100F40004E69FF2D09D868436843156A07013F1AA7
:100F5000BD437043284310620BE02D0A280068430C
:100F600068436843556A07013F1ABD4370432843ED
:100F700050625B1C0868D840BBD14868012801D08A
:100F8000022806D1086853688343C9684843184358
:100F90005060012001B0E0BC7047FEE770B504006E
:100FA0000E0000252068C0072CD420681649014097
:100FB00070680843F1680143306908432060606845
:100FC00012490140B06808436060A06810490140C0
:100FD00070690843A060C020000100F01BF8020007
:100FE00010D03668002E0DD00125030E02027008C5
:100FF0000021801859413200002300F08FF80003CF
:10100000000BE060280070BDF3E9FFEFFFCFFFFFAA
:10101000FFFCFFFF10B5010000203A4CE26C1140CC
:10102000220D914207D0520091422BD0C0221201D2
:1010300091422CD031E0E0680C2101401AD0042903
:1010400023D0082914D00C2914D1E068C00301D59D
:101050002D4800E02D48E168E2682D4B8902090F18
:10106000595C48431102890F491C00F08CF810BDEF
:10107000254810BD606801210004400F401C8140DC
:10108000C80310BD216849073BD5204810BD216D1C
:10109000890536D58020000210BDE0680C21014092
:1010A0001CD0042918D0082914D00C2916D1E068C6
:1010B000C00301D5144800E01448E268E168144B0D
:1010C0009202120F9A5C50430902890F491C00F0EA
:1010D0005AF80AE00C4808E00C4806E06068012174
:1010E0000004400F401C8140C803E168E268094BDE
:1010F0000906090F595CC84007495205520F895C1F
:10110000C84010BD0010024000127A000024F40014
:10111000C0160008B01600080C180008124224D0AF
:10112000994228D970B500251B4202D00C0000213D
:1011300009E00024012649186441944200D3A41A0E
:101140007641F8D33100012601E0764109D200183A
:1011500064416D41A41A9D41F7D2A4185D41B619AE
:10116000F5D3300022002B0070BD1B42D8D108B54A
:1011700000F060F808BD01D19042D3D202000B000C
:101180000021002070470022030A8B420BD2030982
:101190008B4219D243088B422ED2411A00D201460B
:1011A000524110467047FF2209023FD012068B427F
:1011B00005D3121209028B4201D31212090203094C
:1011C0008B4219D300E0090AC3098B4201D3CB013A
:1011D000C01A524183098B4201D38B01C01A52417C
:1011E00043098B4201D34B01C01A524103098B4280
:1011F00001D30B01C01A5241C3088B4201D3CB006B
:10120000C01A524183088B4201D38B00C01A52414D
:1012100043088B4201D34B00C01A5241884200D38D
:10122000401A5241CFD201461046704708B500F02F
:1012300003F808BD7047FEE77047FEE7F0B587B0DA
:1012400000F0A4F800F0C4F845480068FA218900CD
:10125000FFF799FF401E0025424980225204904228
:101260000BD2414A506008680002000AC0231B06E6
:1012700003430B6095600720106008680002000AB5
:1012800008609620C001FFF7E1FC00BF3CA0FFF71B
:10129000E3FD69463548006800F004F96846011D21
:1012A000FA20400000F0FEF8102031490A6802439D
:1012B0000A60096808400290029869468D81049589
:1012C0002C4805902C4E03A9300000F0F5F830684A
:1012D000012101433160294C7562FEF7F1FE706A0D
:1012E00020812089E288904200D2E080A18881425A
:1012F00000D2A080E1680A0C891A0818E060000C8E
:1013000060811A480768684600F006F93F1A684687
:10131000001D00F001F98742DED3694613480068DA
:1013200000F0C0F82078401C2070C0B20228D3D151
:1013300025706078401C6070C0B23C28CCD16570CC
:10134000A078401CA070C0B23C28C5D1A570E07840
:10135000401CE070C0B21828BED1E570BCE70000A8
:101360001000002020ED00E010E000E0A8070020C1
:1013700038100240FDFF0000001000400000002077
:101380000A0D0A0D476F210A0D0A0D0081B00120D8
:1013900037490A6802430A600A68104000900098C2
:1013A000802040054A6802434A604968084000902E
:1013B0000098304801680902090A016041682E4A14
:1013C0000A40426041680902090A416001B0704761
:1013D00010B5012029490A6802430A6009680140E2
:1013E00000D1FEE726490A68264B1340C2021A4381
:1013F0000A6025490A681043086008684007FCD560
:101400004868224A0240880C10434860C868204A55
:1014100002408820C0031043C8600868802252043C
:1014200002430A6008688001FCD5C868F022904336
:10143000C860C868174A0240CA60C868164A0240B5
:10144000CA60C86803220243CA600C20CA6802400E
:101450000C2AFBD1114C200000F06AF810480168FA
:1014600004220A430260200000F06FF810BD000063
:10147000341002401CED00E0FFFF00FF002002409E
:1014800000700040FFE7FFFF00100240FFE0FFFF99
:10149000FFFF02FFFFF8FFFFFFC7FFFF0048E80163
:1014A00010E000E084460870000A4870000A887066
:1014B000000AC8706046704710B402688023DB05DC
:1014C000984205D0114CA04202D0114CA04209D143
:1014D0007024A24314004A682243984205D00B4B63
:1014E000984202D00A4B984203D10A4B1340CA6873
:1014F0001A4302608A68C2620988816241690122D6
:101500000A434261012010BC7047000000080140FE
:1015100000140140FFFCFFFFC37882784178007817
:101520001B021A4309021204084310437047FEE7E6
:1015300010B5074CFA218900FFF725FE401E6060B8
:101540000020A0600520206010BD0249086070479F
:1015500010E000E01000002000C0C101C30302C27F
:10156000C60607C705C5C404CC0C0DCD0FCFCE0EE3
:101570000ACACB0BC90908C8D81819D91BDBDA1A53
:101580001EDEDF1FDD1D1CDC14D4D515D71716D6C3
:10159000D21213D311D1D010F03031F133F3F23233
:1015A00036F6F737F53534F43CFCFD3DFF3F3EFEA3
:1015B000FA3A3BFB39F9F83828E8E929EB2B2AEA13
:1015C000EE2E2FEF2DEDEC2CE42425E527E7E62683
:1015D00022E2E323E12120E0A06061A163A3A262F3
:1015E00066A6A767A56564A46CACAD6DAF6F6EAE63
:1015F000AA6A6BAB69A9A86878B8B979BB7B7ABAD3
:10160000BE7E7FBF7DBDBC7CB47475B577B7B67642
:1016100072B2B373B17170B05090915193535292B2
:1016200096565797559594549C5C5D9D5F9F9E5E22
:101630005A9A9B5B99595898884849894B8B8A4A92
:101640004E8E8F4F8D4D4C8C448485458747468602
:1016500082424383418180400F480168820D0A43E2
:101660000260C1680D4A0A40C26001680C4A0A4023
:10167000026081680122914381600168094A0A4041
:101680000260C168084A0A40C260002101618020EE
:101690000005064908607047001002400C40FF88B2
:1016A000F6FFF6FEFFFFFBFFFFFF02FF08ED00E085
:1016B0000000000000000000010203040607080902
:1016C000030406080C1018203000000070B401213B
:1016D000002213E00468001D0C4202D04D466D1E2E
:1016E00064192260241D1B1F042BFAD225009E07BB
:1016F00001D52280AD1C0B4000D02A700368001D6C
:10170000002BE7D170BC704730B401210268001D86
:10171000002A0FD00368C318446808300C4202D076
:101720004D466D1E64191D6825601B1D241D121F6A
:10173000ECD0F8E730BC704710B507497944183150
:10174000064C7C44163404E0081D0A688918884752
:101750000100A142F8D110BD0800000028000000DF
:101760006DFFFFFF9402000018050020000000003C
:1017700099FFFFFF1400000054000000000000204B
:101780000000000000F00BF8002801D0FFF7D4FFA4
:10179000002000BF00BFFFF751FD00F002F801205C
:1017A000704780B500F002F801BDFEE707463846F5
:1017B00000F002F8FBE7FEE780B500BF00BF024A79
:1017C00011001820ABBEFBE726000200000000005D
:1017D0000000FFFF000000000000000080841E00E9
:1017E00001488047014800475916000801180008C1
:1017F00002480168491C016070470000A8070020EA
:1018000000BF00BF00BF00BFFFF7BCFF000000002B
:10181000010203047047FEE770477047FEE7FEE7EA
:10182000FEE7FEE7FEE7FEE7FEE7FEE7FEE7FEE790
:10183000FEE7FEE7FEE7FEE7FEE7FEE7FEE7FEE780
:02184000FEE7C1
:0400000508001801D6
:00000001FF
