:020000040800F2
:1000000018050020D5160008091700080B1700086E
:1000100000000000000000000000000000000000E0
:100020000000000000000000000000000D170008A4
:1000300000000000000000000F170008E51600088F
:100040008F0F00082B1200082F120008231500083C
:100050009F160008AB1600081117000813170008B8
:100060001517000817170008191700081B170008B4
:100070001D1700081F1700080000000021170008C6
:10008000000000002317000800000000000000002E
:10009000251700080000000027170008291700088E
:1000A0002B1700082D1700082F170008311700081C
:1000B00033170008B50D00080000000035170008D0
:1000C000F0B583B0AD4E70780028AD4CAD4D00D189
:1000D0008DE0AD480068B168401A022801D200F0F6
:1000E00021FC002070706878012800D0CFE0A8784B
:1000F0000002E97808436946888028790002697916
:1001000008430090112800DB1EE3002800D11BE308
:100110006846808800994018112800DBA8E300F0A9
:1001200007FD287800F07AFEFF2029784140490039
:10013000615A48400500012000F070FE280A0121A4
:1001400069400906C90D665A46400098C01DC51091
:10015000E8B200F063FE300AEDB275402906C90D21
:10016000655A454000266846808847077F0F6846E5
:100170008088C008694688800296844869468988D4
:10018000405C0121B940084206D00120029949078C
:10019000490F8840304306007F1CFFB2082F05D16D
:1001A000002768468088401C694688800298401C69
:1001B0000290400757D1F0B200F030FE280AF6B2A4
:1001C0006E403106C90D655A4540002602980099D7
:1001D0008842D2D155E02970012232700068B060A7
:1001E000FF20C9B241404900615A4840B08000F048
:1001F000FBFD010000D195E363480268B368D21AA1
:10020000062AE8D20068B06030782954401C30706B
:10021000C0B2602804D100203070C348B08081E3B0
:10022000B3881A0AC9B259400906C90D615A51402A
:10023000B1800828DBDB0029D9D169780F2901D0EA
:10024000102903D1A97909318142D0D1B648B080B3
:10025000002030702878012802D0FF2800D061E308
:10026000012070705EE302980099884285D1F0B257
:1002700000F0D4FD280AF6B26E403106C90D655A69
:100280004540E8B200F0CAFD2804000E48E3022809
:1002900000D091E0A8780002E97808436946888098
:1002A00028790002697908430290112800DB4BE2AB
:1002B000002800D148E26846808802994018112839
:1002C00000DBD5E200F049FC287800F0A7FDFF2014
:1002D000297841404900615A48400500022000F059
:1002E0009DFD280A022169400906C90D665A46404B
:1002F0000298C01DC510E8B200F090FD300AEDB2C2
:1003000075402906C90D655A454000266846808813
:1003100047077F0F68468088C00869468880009636
:10032000D24869468988405C0121B940084206D01C
:10033000012000994907490F8840304306007F1C7F
:10034000FFB2082F05D1002768468088401C694607
:1003500088800098401C0090400719D1F0B200F04E
:100360005DFD280AF6B26E403106C90D655A45405A
:100370000026009802998842D2D117E08807002011
:100380003009000818070020A8070020A007002057
:10039000009802998842C3D1F0B200F03FFD280ACC
:1003A000F6B26E403106C90D655A4540E8B200F01C
:1003B00035FD2804000EB3E2032859D1A8780002C5
:1003C000E978084300902879070268790743092FE4
:1003D00000DBB9E1002F00D1B6E10098C019052873
:1003E00000DB45E200F0D4FB287800F017FDFF2089
:1003F000297841404900615A48400500032000F037
:100400000DFD280A032169400906C90D665A4640B8
:100410007D00E8B200F002FD300AEDB27540290619
:10042000C90D665A4640012F1DDB914800994900CD
:1004300045182888000A00F0F1FC2888310A020AD1
:1004400072401206D20DA65A4E40C0B200F0E6FC31
:10045000300A2988C9B271400906C90D665A46405A
:10046000AD1C7F1EE5D1F0B200F0D8FC300A57E297
:1004700004285BD1A8780002E97808430090287925
:10048000070268790743092F00DB5DE1002F00D1E7
:100490005AE10098C019082800DBE9E100F083FB6D
:1004A000287800F0BBFCFF20297841404900615AC0
:1004B00048400500042000F0B1FC280A04216940EE
:1004C0000906C90D665A46407D00E8B200F0A6FC58
:1004D000300AEDB275402906C90D655A4540012F15
:1004E0001DDB64480099490046183088000A00F076
:1004F00095FC3088290A020A6A401206D20DA55AD4
:100500004D40C0B200F08AFC280A3188C9B2694067
:100510000906C90D655A4540B61C7F1EE5D1E8B2F3
:1005200000F07CFC280AFBE1FFFF000005283CD11D
:10053000A8780002E9780843102800DB98E12979BF
:1005400009026A7911430FD0FF221202914200D0B2
:10055000FAE0C108BF4A51180A7801234007400F4A
:10056000834013430B7009E0C108BA4A51180A7856
:1005700001234007400F83409A430A70287800F017
:100580004DFC687800F04AFCA87800F047FCE87859
:1005900000F044FC287900F041FC687900F03EFC52
:1005A000A87900F03BFCE879B6E0062826D1A878C7
:1005B0000002E9780843042800DB59E1297909029F
:1005C0006A7911432A4A40001152287800F026FC2B
:1005D000687800F023FCA87800F020FCE87800F0B0
:1005E0001DFC287900F01AFC687900F017FCA87946
:1005F00000F014FCE87900F011FC69E10F2800D04C
:100600008FE0A8780002E9780843297909026A791D
:100610001143092900DB97E0002900D194E0CA1DAD
:10062000D210AB799A4200D08EE04218112A00DB3A
:100630001EE14207520F4003000C0023012928DB72
:10064000012494406E46B471824C2418009424789E
:10065000DE10AE19F6795F077F0FFE40F6076E4693
:10066000B67909D52643009C267008E09E07002035
:100670009407002078070020B443009E3470521C79
:10068000D2B2082A02D10022401C80B25B1C8B42ED
:10069000D6DB00BFA6A4287800F0C0FB2878A249CA
:1006A00041400806C00D205AFF264640687800F0F9
:1006B000B5FB300A697871400906C90D665A464093
:1006C000A87800F0ABFB300AA97871400906C90D83
:1006D000665A4640E87800F0A1FB300AE97871409C
:1006E0000906C90D665A4640287900F097FB300A82
:1006F000297971400906C90D665A4640687900F0AB
:100700008DFB300A697971400906C90D645A44406D
:10071000E0B200F083FB200A00F080FB00F05AFA00
:1007200000E1102800D097E0A8780002E97808439B
:10073000297909026A791143092905DA002903D0C8
:100740004A00AB799A421CD0287800F067FBFF2062
:10075000297841404900615A48400700802668785E
:10076000304300F05BFB380A69780E437E40310667
:10077000C90D655A4540032000F050FB280A0321AB
:10078000C5E04218052A73DA01291DDB674A4000DB
:100790001018EA1DCB0706D513781B0254782343A3
:1007A0000380921C801C49080ED013781B025478D9
:1007B0002343038093781B02D47823434380491E4C
:1007C000121D001D0029F0D159A4287800F026FB45
:1007D0002878554941400806C00D205AFF2646405A
:1007E000687800F01BFB300A697871400906C90D72
:1007F000665A4640A87800F011FB300AA97871408B
:100800000906C90D665A4640E87800F007FB300A31
:10081000E97871400906C90D665A4640287900F00A
:10082000FDFA300A297971400906C90D665A464019
:10083000687900F0F3FA300A697971400906C90D48
:10084000645A4440E0B200F0E9FA200A00F0E6FA07
:100850003EE000BFA007002016283CD1A878010286
:10086000E8780143287900026A79104304291CDBE7
:10087000287800F0D3FAFF20297841404900615AD6
:100880004840070080266878304300F0C7FA380AED
:1008900069780E437E403106C90D655A45400220F5
:1008A00000F0BCFA280A022131E0204A4900511820
:1008B0000A880240AB791B02EC792343834313433C
:1008C0000B800A24287800F0A9FA6D1C641EF9D167
:1008D00000F095F926E0287800F0A0FAFF202978AA
:1008E00041404900615A48400700802668783043FB
:1008F00000F094FA380A69780E437E403106C90D3B
:10090000655A4540012000F089FA280A0121694012
:100910000906C90D645A4440E0B200F07FFA200A8B
:1009200000F07CFA03B0F0BDFFFF00009407002048
:100930000000C1C081C1400101C3C003800241C2A7
:1009400001C6C006800741C70005C1C581C4400477
:1009500001CCC00C800D41CD000FC1CF81CE400E27
:10096000000AC1CA81CB400B01C9C009800841C837
:1009700001D8C018801941D9001BC1DB81DA401AA7
:10098000001EC1DE81DF401F01DDC01D801C41DC77
:100990000014C1D481D5401501D7C017801641D6A7
:1009A00001D2C012801341D30011C1D181D04010B7
:1009B00001F0C030803141F10033C1F381F24032A7
:1009C0000036C1F681F7403701F5C035803441F477
:1009D000003CC1FC81FD403D01FFC03F803E41FE27
:1009E00001FAC03A803B41FB0039C1F981F8403837
:1009F0000028C1E881E9402901EBC02B802A41EAA7
:100A000001EEC02E802F41EF002DC1ED81EC402C76
:100A100001E4C024802541E50027C1E781E64026A6
:100A20000022C1E281E3402301E1C021802041E0B6
:100A300001A0C060806141A10063C1A381A24062A6
:100A40000066C1A681A7406701A5C065806441A476
:100A5000006CC1AC81AD406D01AFC06F806E41AE26
:100A600001AAC06A806B41AB0069C1A981A8406836
:100A70000078C1B881B9407901BBC07B807A41BAA6
:100A800001BEC07E807F41BF007DC1BD81BC407C76
:100A900001B4C074807541B50077C1B781B64076A6
:100AA0000072C1B281B3407301B1C071807041B0B6
:100AB0000050C190819140510193C05380524192A6
:100AC0000196C056805741970055C1958194405476
:100AD000019CC05C805D419D005FC19F819E405E26
:100AE000005AC19A819B405B0199C0598058419836
:100AF0000188C04880494189004BC18B818A404AA6
:100B0000004EC18E818F404F018DC04D804C418C75
:100B10000044C184818540450187C04780464186A5
:100B20000182C042804341830041C18181804040B5
:100B300010B4384801780279F023134004220A40A7
:100B400008240C401443CA07D20F22430224214038
:100B500011431943017110BC704730B42D4801781E
:100B60008378E0221A4008230B402B4C2478240180
:100B700010252C401C43CB07DB0F234302240C40E1
:100B80001C430423194021431143817030BC70473A
:100B90002248234909780180224909784180224965
:100BA00009788180704721481D49097801801D49D5
:100BB000097841801C49097881801D490988C180D4
:100BC0001C49098801811C49098841811B49098800
:100BD0008181704710B40F4801790278F0231340E7
:100BE00004220A4008240C401443CA07D20F2243AF
:100BF0000224214011431943017010BC704707487B
:100C00000188074A11704188064A11708088064998
:100C1000087070479C070020000000209407002007
:100C200001000020020000200300002078070020BF
:100C30000800002004000020060000200A00002018
:100C4000F1B58EB07F4C206A7F49014021620226B7
:100C50002068304320602068304000900098019662
:100C60000296032003900025049505950420069024
:100C700001A9694800F030F9200D01900296032087
:100C800003900495012705970420069001A9624866
:100C900000F022F9E00C01900296032003900495E5
:100CA00005970420069001A95B4800F015F96068DB
:100CB0003843606060683840009000987348C16BAA
:100CC000734A0A40A021C9031143C1630168714AF4
:100CD0000A4002600168C02292010A430260016872
:100CE00020220A43026001684022914301600168AA
:100CF00080220A4302600168674A0A400260016874
:100D0000514A0A4002604168090C0904820D0A43F5
:100D10004260816861498160C1686149C160016860
:100D2000394301607004E1680143E160E168084013
:100D3000009000980E980790089509950A950C2048
:100D40000B900C95274C07A9200000F021F9A06812
:100D5000210C0143A160A06852490140A1602068B4
:100D60005149014021602068504901402160A0683C
:100D7000A10C0143A160A0684D490140A160402041
:100D8000A1680143A16020622168084320602068B7
:100D900007432760474805804580858046480168AD
:100DA000464A0A40026030074549086045490860E4
:100DB0000FB0F0BD402244480168114000D1704797
:100DC00010B43C494B888C88A34201D1426007E0B3
:100DD0003F4A8B88D25CC2608888401CC0B2888041
:100DE00010BC70470048004030B432490A88802067
:100DF0004000364C2468A4B2041BA24201D100205A
:100E000008E00624334D2C60254CA35C521CD2B262
:100E10000A80184330BC70470004005010B42549C4
:100E20004A888C88A24205D1274B1C68240601D52C
:100E3000D86004E0264B9854521CD0B2488010BCB5
:100E4000704700002C100240FFF3FFFFF1B40020B8
:100E500080211D4A009B1B5C1C0013D0154C65882B
:100E6000A788BD4204D116680E4001D0D36004E0CB
:100E7000174E73556D1CEBB26380401C80B24B0063
:100E80009842E7D101B0F0BC704700006C0002400E
:100E9000FFFF0FFFEFBFFFFFFFFCFFFF24480040F5
:100EA00018050020FF7FFFFFFFFF1FFCFFFFE0FF93
:100EB000FFDFFFFFA20700201CE400E0FF00FFFFB0
:100EC00080E200E000E100E01C48004070000240C9
:100ED0001806002020480040E0B481B00200002342
:100EE0000868002843D0086801259D4005403AD095
:100EF0002800684346003718FE43009617683E40B6
:100F00004F684743374317604E68012E01D0022EC9
:100F100006D19768009E3E408F68474337439760ED
:100F2000D768009E3E400F6947433743D7604E68FD
:100F3000022E18D14E69FF2D09D868436843156AFF
:100F400007013F1ABD437043284310620BE02D0A8E
:100F50002800684368436843556A07013F1ABD4348
:100F60007043284350625B1C0868D840BBD1486876
:100F7000012801D0022806D1086853688343C96854
:100F8000484318435060012001B0E0BC7047FEE7C1
:100F900070B504000E0000252068C0072CD420681E
:100FA0001649014070680843F168014330690843FD
:100FB0002060606812490140B06808436060A06822
:100FC0001049014070690843A060C020000100F092
:100FD0001BF8020010D03668002E0DD00125030E3C
:100FE000020270080021801859413200002300F0ED
:100FF0008FF80003000BE060280070BDF3E9FFEFFD
:10100000FFCFFFFFFFFCFFFF10B5010000203A4CAF
:10101000E26C1140220D914207D0520091422BD038
:10102000C022120191422CD031E0E0680C21014035
:101030001AD0042923D0082914D00C2914D1E0682F
:10104000C00301D52D4800E02D48E168E2682D4B32
:101050008902090F595C48431102890F491C00F0AD
:101060008CF810BD254810BD606801210004400FB8
:10107000401C8140C80310BD216849073BD520486A
:1010800010BD216D890536D58020000210BDE068B5
:101090000C2101401CD0042918D0082914D00C2997
:1010A00016D1E068C00301D5144800E01448E26896
:1010B000E168144B9202120F9A5C50430902890FA7
:1010C000491C00F05AF80AE00C4808E00C4806E019
:1010D000606801210004400F401C8140C803E168A2
:1010E000E268094B0906090F595CC84007495205D7
:1010F000520F895CC84010BD0010024000127A00F7
:101100000024F400B4150008A41500080017000816
:10111000124224D0994228D970B500251B4202D032
:101120000C00002109E00024012649186441944282
:1011300000D3A41A7641F8D33100012601E07641AC
:1011400009D2001864416D41A41A9D41F7D2A41838
:101150005D41B619F5D3300022002B0070BD1B4253
:10116000D8D108B500F060F808BD01D19042D3D2C3
:1011700002000B000021002070470022030A8B426E
:101180000BD203098B4219D243088B422ED2411A4B
:1011900000D20146524110467047FF2209023FD05B
:1011A00012068B4205D3121209028B4201D312128E
:1011B000090203098B4219D300E0090AC3098B42D3
:1011C00001D3CB01C01A524183098B4201D38B0159
:1011D000C01A524143098B4201D34B01C01A5241FC
:1011E00003098B4201D30B01C01A5241C3088B4241
:1011F00001D3CB00C01A524183088B4201D38B002C
:10120000C01A524143088B4201D34B00C01A5241CD
:10121000884200D3401A5241CFD20146104670474F
:1012200008B500F003F808BD7047FEE77047FEE719
:10123000F0B587B000F0A4F800F0C4F845480068A5
:10124000FA218900FFF799FF401E002542498022BC
:10125000520490420BD2414A506008680002000AD2
:10126000C0231B0603430B609560072010600868CD
:101270000002000A08609620C001FFF7E1FC00BFF1
:101280003CA0FFF7E3FD69463548006800F004F92B
:101290006846011DFA20400000F0FEF81020314998
:1012A0000A6802430A600968084002900298694689
:1012B0008D8104952C4805902C4E03A9300000F038
:1012C000F5F83068012101433160294C7562FEF761
:1012D000F7FE706A20812089E288904200D2E08087
:1012E000A188814200D2A080E1680A0C891A0818FE
:1012F000E060000C60811A480768684600F006F953
:101300003F1A6846001D00F001F98742DED36946A6
:101310001348006800F0C0F82078401C2070C0B26C
:101320000228D3D125706078401C6070C0B23C2880
:10133000CCD16570A078401CA070C0B23C28C5D14B
:10134000A570E078401CE070C0B21828BED1E570EE
:10135000BCE700001000002020ED00E010E000E0FD
:10136000A807002038100240FDFF000000100040D8
:10137000000000200A0D0A0D476F210A0D0A0D001A
:1013800081B0012037490A6802430A600A681040A8
:1013900000900098802040054A6802434A604968EE
:1013A000084000900098304801680902090A01606D
:1013B00041682E4A0A40426041680902090A4160B8
:1013C00001B0704710B5012029490A6802430A603C
:1013D0000968014000D1FEE726490A68264B134000
:1013E000C2021A430A6025490A6810430860086867
:1013F0004007FCD54868224A0240880C10434860E8
:10140000C868204A02408820C0031043C8600868AA
:101410008022520402430A6008688001FCD5C86833
:10142000F0229043C860C868174A0240CA60C86882
:10143000164A0240CA60C86803220243CA600C20F0
:10144000CA6802400C2AFBD1114C200000F06AF857
:101450001048016804220A430260200000F06FF87F
:1014600010BD0000341002401CED00E0FFFF00FF43
:101470000020024000700040FFE7FFFF0010024024
:10148000FFE0FFFFFFFF02FFFFF8FFFFFFC7FFFFC7
:101490000048E80110E000E084460870000A487047
:1014A000000A8870000AC8706046704710B402686D
:1014B0008023DB05984205D0114CA04202D0114C8C
:1014C000A04209D17024A24314004A6822439842E2
:1014D00005D00B4B984202D00A4B984203D10A4BDD
:1014E0001340CA681A4302608A68C262098881622E
:1014F000416901220A434261012010BC704700008B
:101500000008014000140140FFFCFFFFC37882780F
:10151000417800781B021A43090212040843104361
:101520007047FEE710B5074CFA218900FFF725FE4A
:10153000401E60600020A0600520206010BD0249B0
:101540000860704710E000E0100000200F480168BC
:10155000820D0A430260C1680D4A0A40C2600168F8
:101560000C4A0A400260816801229143816001684F
:10157000094A0A400260C168084A0A40C260002164
:101580000161802000050649086070470010024094
:101590000C40FF88F6FFF6FEFFFFFBFFFFFF02FF98
:1015A00008ED00E00000000000000000010203045C
:1015B00006070809030406080C1018203000000074
:1015C00070B40121002213E00468001D0C4202D017
:1015D0004D466D1E64192260241D1B1F042BFAD278
:1015E00025009E0701D52280AD1C0B4000D02A703B
:1015F0000368001D002BE7D170BC704730B4012197
:101600000268001D002A0FD00368C3184468083020
:101610000C4202D04D466D1E64191D6825601B1DCD
:10162000241D121FECD0F8E730BC704710B50749F5
:1016300079441831064C7C44163404E0081D0A68CD
:10164000891888470100A142F8D110BD08000000A8
:10165000280000006DFFFFFF940200001805002025
:101660000000000099FFFFFF14000000540000007C
:10167000000000200000000000F00BF8002801D05E
:10168000FFF7D4FF002000BF00BFFFF7D1FD00F03F
:1016900002F80120704780B500F002F801BDFEE7B6
:1016A0000746384600F002F8FBE7FEE780B500BFCA
:1016B00000BF024A11001820ABBEFBE72600020063
:1016C000000000000000FFFF00000000000000001C
:1016D00080841E0001488047014800474D150008DE
:1016E000F516000802480168491C016070470000B7
:1016F000A807002000BF00BF00BF00BFFFF7BCFF6E
:1017000000000000010203047047FEE770477047C5
:10171000FEE7FEE7FEE7FEE7FEE7FEE7FEE7FEE7A1
:10172000FEE7FEE7FEE7FEE7FEE7FEE7FEE7FEE791
:06173000FEE7FEE7FEE704
:04000005080016F5E4
:00000001FF
